{
  "contractName": "ERC1155MintBurn",
  "abi": [
    {
      "anonymous": false,
      "inputs": [
        {
          "indexed": true,
          "internalType": "address",
          "name": "_owner",
          "type": "address"
        },
        {
          "indexed": true,
          "internalType": "address",
          "name": "_operator",
          "type": "address"
        },
        {
          "indexed": false,
          "internalType": "bool",
          "name": "_approved",
          "type": "bool"
        }
      ],
      "name": "ApprovalForAll",
      "type": "event"
    },
    {
      "anonymous": false,
      "inputs": [
        {
          "indexed": true,
          "internalType": "address",
          "name": "_operator",
          "type": "address"
        },
        {
          "indexed": true,
          "internalType": "address",
          "name": "_from",
          "type": "address"
        },
        {
          "indexed": true,
          "internalType": "address",
          "name": "_to",
          "type": "address"
        },
        {
          "indexed": false,
          "internalType": "uint256[]",
          "name": "_ids",
          "type": "uint256[]"
        },
        {
          "indexed": false,
          "internalType": "uint256[]",
          "name": "_amounts",
          "type": "uint256[]"
        }
      ],
      "name": "TransferBatch",
      "type": "event"
    },
    {
      "anonymous": false,
      "inputs": [
        {
          "indexed": true,
          "internalType": "address",
          "name": "_operator",
          "type": "address"
        },
        {
          "indexed": true,
          "internalType": "address",
          "name": "_from",
          "type": "address"
        },
        {
          "indexed": true,
          "internalType": "address",
          "name": "_to",
          "type": "address"
        },
        {
          "indexed": false,
          "internalType": "uint256",
          "name": "_id",
          "type": "uint256"
        },
        {
          "indexed": false,
          "internalType": "uint256",
          "name": "_amount",
          "type": "uint256"
        }
      ],
      "name": "TransferSingle",
      "type": "event"
    },
    {
      "anonymous": false,
      "inputs": [
        {
          "indexed": false,
          "internalType": "string",
          "name": "_uri",
          "type": "string"
        },
        {
          "indexed": true,
          "internalType": "uint256",
          "name": "_id",
          "type": "uint256"
        }
      ],
      "name": "URI",
      "type": "event"
    },
    {
      "constant": true,
      "inputs": [
        {
          "internalType": "address",
          "name": "_owner",
          "type": "address"
        },
        {
          "internalType": "uint256",
          "name": "_id",
          "type": "uint256"
        }
      ],
      "name": "balanceOf",
      "outputs": [
        {
          "internalType": "uint256",
          "name": "",
          "type": "uint256"
        }
      ],
      "payable": false,
      "stateMutability": "view",
      "type": "function"
    },
    {
      "constant": true,
      "inputs": [
        {
          "internalType": "address[]",
          "name": "_owners",
          "type": "address[]"
        },
        {
          "internalType": "uint256[]",
          "name": "_ids",
          "type": "uint256[]"
        }
      ],
      "name": "balanceOfBatch",
      "outputs": [
        {
          "internalType": "uint256[]",
          "name": "",
          "type": "uint256[]"
        }
      ],
      "payable": false,
      "stateMutability": "view",
      "type": "function"
    },
    {
      "constant": true,
      "inputs": [
        {
          "internalType": "address",
          "name": "_owner",
          "type": "address"
        },
        {
          "internalType": "address",
          "name": "_operator",
          "type": "address"
        }
      ],
      "name": "isApprovedForAll",
      "outputs": [
        {
          "internalType": "bool",
          "name": "isOperator",
          "type": "bool"
        }
      ],
      "payable": false,
      "stateMutability": "view",
      "type": "function"
    },
    {
      "constant": false,
      "inputs": [
        {
          "internalType": "address",
          "name": "_from",
          "type": "address"
        },
        {
          "internalType": "address",
          "name": "_to",
          "type": "address"
        },
        {
          "internalType": "uint256[]",
          "name": "_ids",
          "type": "uint256[]"
        },
        {
          "internalType": "uint256[]",
          "name": "_amounts",
          "type": "uint256[]"
        },
        {
          "internalType": "bytes",
          "name": "_data",
          "type": "bytes"
        }
      ],
      "name": "safeBatchTransferFrom",
      "outputs": [],
      "payable": false,
      "stateMutability": "nonpayable",
      "type": "function"
    },
    {
      "constant": false,
      "inputs": [
        {
          "internalType": "address",
          "name": "_from",
          "type": "address"
        },
        {
          "internalType": "address",
          "name": "_to",
          "type": "address"
        },
        {
          "internalType": "uint256",
          "name": "_id",
          "type": "uint256"
        },
        {
          "internalType": "uint256",
          "name": "_amount",
          "type": "uint256"
        },
        {
          "internalType": "bytes",
          "name": "_data",
          "type": "bytes"
        }
      ],
      "name": "safeTransferFrom",
      "outputs": [],
      "payable": false,
      "stateMutability": "nonpayable",
      "type": "function"
    },
    {
      "constant": false,
      "inputs": [
        {
          "internalType": "address",
          "name": "_operator",
          "type": "address"
        },
        {
          "internalType": "bool",
          "name": "_approved",
          "type": "bool"
        }
      ],
      "name": "setApprovalForAll",
      "outputs": [],
      "payable": false,
      "stateMutability": "nonpayable",
      "type": "function"
    },
    {
      "constant": true,
      "inputs": [
        {
          "internalType": "bytes4",
          "name": "_interfaceID",
          "type": "bytes4"
        }
      ],
      "name": "supportsInterface",
      "outputs": [
        {
          "internalType": "bool",
          "name": "",
          "type": "bool"
        }
      ],
      "payable": false,
      "stateMutability": "view",
      "type": "function"
    }
  ],
  "bytecode": "0x608060405234801561001057600080fd5b506113ae806100206000396000f3fe608060405234801561001057600080fd5b506004361061007c5760003560e01c80634e1273f41161005b5780634e1273f4146102db578063a22cb46514610452578063e985e9c514610480578063f242432a146104ae5761007c565b8062fdd58e1461008157806301ffc9a7146100bf5780632eb2c2d614610112575b600080fd5b6100ad6004803603604081101561009757600080fd5b506001600160a01b038135169060200135610579565b60408051918252519081900360200190f35b6100fe600480360360208110156100d557600080fd5b50357fffffffff000000000000000000000000000000000000000000000000000000001661059f565b604080519115158252519081900360200190f35b6102d9600480360360a081101561012857600080fd5b6001600160a01b03823581169260208101359091169181019060608101604082013564010000000081111561015c57600080fd5b82018360208201111561016e57600080fd5b8035906020019184602083028401116401000000008311171561019057600080fd5b91908080602002602001604051908101604052809392919081815260200183836020028082843760009201919091525092959493602081019350359150506401000000008111156101e057600080fd5b8201836020820111156101f257600080fd5b8035906020019184602083028401116401000000008311171561021457600080fd5b919080806020026020016040519081016040528093929190818152602001838360200280828437600092019190915250929594936020810193503591505064010000000081111561026457600080fd5b82018360208201111561027657600080fd5b8035906020019184600183028401116401000000008311171561029857600080fd5b91908080601f016020809104026020016040519081016040528093929190818152602001838380828437600092019190915250929550610648945050505050565b005b610402600480360360408110156102f157600080fd5b81019060208101813564010000000081111561030c57600080fd5b82018360208201111561031e57600080fd5b8035906020019184602083028401116401000000008311171561034057600080fd5b919080806020026020016040519081016040528093929190818152602001838360200280828437600092019190915250929594936020810193503591505064010000000081111561039057600080fd5b8201836020820111156103a257600080fd5b803590602001918460208302840111640100000000831117156103c457600080fd5b919080806020026020016040519081016040528093929190818152602001838360200280828437600092019190915250929550610704945050505050565b60408051602080825283518183015283519192839290830191858101910280838360005b8381101561043e578181015183820152602001610426565b505050509050019250505060405180910390f35b6102d96004803603604081101561046857600080fd5b506001600160a01b0381351690602001351515610805565b6100fe6004803603604081101561049657600080fd5b506001600160a01b0381358116916020013516610891565b6102d9600480360360a08110156104c457600080fd5b6001600160a01b03823581169260208101359091169160408201359160608101359181019060a08101608082013564010000000081111561050457600080fd5b82018360208201111561051657600080fd5b8035906020019184600183028401116401000000008311171561053857600080fd5b91908080601f0160208091040260200160405190810160405280939291908181526020018383808284376000920191909152509295506108bf945050505050565b6001600160a01b0391909116600090815260208181526040808320938352929052205490565b60007fffffffff0000000000000000000000000000000000000000000000000000000082167f01ffc9a700000000000000000000000000000000000000000000000000000000148061063257507fffffffff0000000000000000000000000000000000000000000000000000000082167fd9b67a2600000000000000000000000000000000000000000000000000000000145b1561063f57506001610643565b5060005b919050565b336001600160a01b038616148061066457506106648533610891565b61069f5760405162461bcd60e51b815260040180806020018281038252602f8152602001806112d2602f913960400191505060405180910390fd5b6001600160a01b0384166106e45760405162461bcd60e51b81526004018080602001828103825260308152602001806112766030913960400191505060405180910390fd5b6106f085858585610974565b6106fd8585858585610c1f565b5050505050565b606081518351146107465760405162461bcd60e51b815260040180806020018281038252602c8152602001806112a6602c913960400191505060405180910390fd5b60608351604051908082528060200260200182016040528015610773578160200160208202803883390190505b50905060005b84518110156107fd5760008086838151811061079157fe5b60200260200101516001600160a01b03166001600160a01b0316815260200190815260200160002060008583815181106107c757fe5b60200260200101518152602001908152602001600020548282815181106107ea57fe5b6020908102919091010152600101610779565b509392505050565b3360008181526001602090815260408083206001600160a01b0387168085529083529281902080547fffffffffffffffffffffffffffffffffffffffffffffffffffffffffffffff0016861515908117909155815190815290519293927f17307eab39ab6107e8899845ad3d59bd9653f200f220920489ca2b5937696c31929181900390910190a35050565b6001600160a01b03918216600090815260016020908152604080832093909416825291909152205460ff1690565b336001600160a01b03861614806108db57506108db8533610891565b6109165760405162461bcd60e51b815260040180806020018281038252602a815260200180611217602a913960400191505060405180910390fd5b6001600160a01b03841661095b5760405162461bcd60e51b815260040180806020018281038252602b8152602001806111ec602b913960400191505060405180910390fd5b61096785858585610e56565b6106fd8585858585610f3e565b80518251146109b45760405162461bcd60e51b81526004018080602001828103825260358152602001806112416035913960400191505060405180910390fd5b815160005b81811015610b3e57610a2f8382815181106109d057fe5b6020026020010151600080896001600160a01b03166001600160a01b031681526020019081526020016000206000878581518110610a0a57fe5b60200260200101518152602001908152602001600020546110f190919063ffffffff16565b600080886001600160a01b03166001600160a01b031681526020019081526020016000206000868481518110610a6157fe5b6020026020010151815260200190815260200160002081905550610ae9838281518110610a8a57fe5b6020026020010151600080886001600160a01b03166001600160a01b031681526020019081526020016000206000878581518110610ac457fe5b602002602001015181526020019081526020016000205461114e90919063ffffffff16565b600080876001600160a01b03166001600160a01b031681526020019081526020016000206000868481518110610b1b57fe5b6020908102919091018101518252810191909152604001600020556001016109b9565b50836001600160a01b0316856001600160a01b0316336001600160a01b03167f4a39dc06d4c0dbc64b70af90fd698a233a518aa5d07e595d983b8c0526c8f7fb8686604051808060200180602001838103835285818151815260200191508051906020019060200280838360005b83811015610bc4578181015183820152602001610bac565b50505050905001838103825284818151815260200191508051906020019060200280838360005b83811015610c03578181015183820152602001610beb565b5050505090500194505050505060405180910390a45050505050565b610c31846001600160a01b03166111af565b156106fd576000846001600160a01b031663bc197c8133888787876040518663ffffffff1660e01b815260040180866001600160a01b03166001600160a01b03168152602001856001600160a01b03166001600160a01b03168152602001806020018060200180602001848103845287818151815260200191508051906020019060200280838360005b83811015610cd3578181015183820152602001610cbb565b50505050905001848103835286818151815260200191508051906020019060200280838360005b83811015610d12578181015183820152602001610cfa565b50505050905001848103825285818151815260200191508051906020019080838360005b83811015610d4e578181015183820152602001610d36565b50505050905090810190601f168015610d7b5780820380516001836020036101000a031916815260200191505b5098505050505050505050602060405180830381600087803b158015610da057600080fd5b505af1158015610db4573d6000803e3d6000fd5b505050506040513d6020811015610dca57600080fd5b505190507fffffffff0000000000000000000000000000000000000000000000000000000081167fbc197c810000000000000000000000000000000000000000000000000000000014610e4e5760405162461bcd60e51b815260040180806020018281038252603f815260200180611301603f913960400191505060405180910390fd5b505050505050565b6001600160a01b038416600090815260208181526040808320858452909152902054610e88908263ffffffff6110f116565b6001600160a01b0380861660009081526020818152604080832087845282528083209490945591861681528082528281208582529091522054610ed1908263ffffffff61114e16565b6001600160a01b03808516600081815260208181526040808320888452825291829020949094558051868152938401859052805191939288169233927fc3d58168c5ae7397731d063d5bbf3d657854427343f4c083240f7aacaa2d0f62929181900390910190a450505050565b610f50846001600160a01b03166111af565b156106fd576000846001600160a01b031663f23a6e6133888787876040518663ffffffff1660e01b815260040180866001600160a01b03166001600160a01b03168152602001856001600160a01b03166001600160a01b0316815260200184815260200183815260200180602001828103825283818151815260200191508051906020019080838360005b83811015610ff3578181015183820152602001610fdb565b50505050905090810190601f1680156110205780820380516001836020036101000a031916815260200191505b509650505050505050602060405180830381600087803b15801561104357600080fd5b505af1158015611057573d6000803e3d6000fd5b505050506040513d602081101561106d57600080fd5b505190507fffffffff0000000000000000000000000000000000000000000000000000000081167ff23a6e610000000000000000000000000000000000000000000000000000000014610e4e5760405162461bcd60e51b815260040180806020018281038252603a815260200180611340603a913960400191505060405180910390fd5b600082821115611148576040805162461bcd60e51b815260206004820152601760248201527f536166654d617468237375623a20554e444552464c4f57000000000000000000604482015290519081900360640190fd5b50900390565b6000828201838110156111a8576040805162461bcd60e51b815260206004820152601660248201527f536166654d617468236164643a204f564552464c4f5700000000000000000000604482015290519081900360640190fd5b9392505050565b6000813f7fc5d2460186f7233c927e7db2dcc703c0e500b653ca82273b7bfad8045d85a47081158015906111e35750808214155b94935050505056fe4552433131353523736166655472616e7366657246726f6d3a20494e56414c49445f524543495049454e544552433131353523736166655472616e7366657246726f6d3a20494e56414c49445f4f50455241544f5245524331313535235f7361666542617463685472616e7366657246726f6d3a20494e56414c49445f4152524159535f4c454e47544845524331313535237361666542617463685472616e7366657246726f6d3a20494e56414c49445f524543495049454e54455243313135352362616c616e63654f6642617463683a20494e56414c49445f41525241595f4c454e47544845524331313535237361666542617463685472616e7366657246726f6d3a20494e56414c49445f4f50455241544f5245524331313535235f63616c6c6f6e45524331313535426174636852656365697665643a20494e56414c49445f4f4e5f524543454956455f4d45535341474545524331313535235f63616c6c6f6e4552433131353552656365697665643a20494e56414c49445f4f4e5f524543454956455f4d455353414745a265627a7a72315820b167e0b569600af7bca1c63acd31fc6ecea00e844c54486ed7adde64a18c8fad64736f6c634300050c0032",
  "source": "pragma solidity ^0.5.12;\n\nimport \"./ERC1155.sol\";\n\n\n/**\n * @dev Multi-Fungible Tokens with minting and burning methods. These methods assume\n *      a parent contract to be executed as they are `internal` functions\n */\ncontract ERC1155MintBurn is ERC1155 {\n\n\n  /****************************************|\n  |            Minting Functions           |\n  |_______________________________________*/\n\n  /**\n   * @notice Mint _amount of tokens of a given id\n   * @param _to      The address to mint tokens to\n   * @param _id      Token id to mint\n   * @param _amount  The amount to be minted\n   * @param _data    Data to pass if receiver is contract\n   */\n  function _mint(address _to, uint256 _id, uint256 _amount, bytes memory _data)\n    internal\n  {\n    // Add _amount\n    balances[_to][_id] = balances[_to][_id].add(_amount);\n\n    // Emit event\n    emit TransferSingle(msg.sender, address(0x0), _to, _id, _amount);\n\n    // Calling onReceive method if recipient is contract\n    _callonERC1155Received(address(0x0), _to, _id, _amount, _data);\n  }\n\n  /**\n   * @notice Mint tokens for each ids in _ids\n   * @param _to       The address to mint tokens to\n   * @param _ids      Array of ids to mint\n   * @param _amounts  Array of amount of tokens to mint per id\n   * @param _data    Data to pass if receiver is contract\n   */\n  function _batchMint(address _to, uint256[] memory _ids, uint256[] memory _amounts, bytes memory _data)\n    internal\n  {\n    require(_ids.length == _amounts.length, \"ERC1155MintBurn#batchMint: INVALID_ARRAYS_LENGTH\");\n\n    // Number of mints to execute\n    uint256 nMint = _ids.length;\n\n     // Executing all minting\n    for (uint256 i = 0; i < nMint; i++) {\n      // Update storage balance\n      balances[_to][_ids[i]] = balances[_to][_ids[i]].add(_amounts[i]);\n    }\n\n    // Emit batch mint event\n    emit TransferBatch(msg.sender, address(0x0), _to, _ids, _amounts);\n\n    // Calling onReceive method if recipient is contract\n    _callonERC1155BatchReceived(address(0x0), _to, _ids, _amounts, _data);\n  }\n\n\n  /****************************************|\n  |            Burning Functions           |\n  |_______________________________________*/\n\n  /**\n   * @notice Burn _amount of tokens of a given token id\n   * @param _from    The address to burn tokens from\n   * @param _id      Token id to burn\n   * @param _amount  The amount to be burned\n   */\n  function _burn(address _from, uint256 _id, uint256 _amount)\n    internal\n  {\n    //Substract _amount\n    balances[_from][_id] = balances[_from][_id].sub(_amount);\n\n    // Emit event\n    emit TransferSingle(msg.sender, _from, address(0x0), _id, _amount);\n  }\n\n  /**\n   * @notice Burn tokens of given token id for each (_ids[i], _amounts[i]) pair\n   * @param _from     The address to burn tokens from\n   * @param _ids      Array of token ids to burn\n   * @param _amounts  Array of the amount to be burned\n   */\n  function _batchBurn(address _from, uint256[] memory _ids, uint256[] memory _amounts)\n    internal\n  {\n    require(_ids.length == _amounts.length, \"ERC1155MintBurn#batchBurn: INVALID_ARRAYS_LENGTH\");\n\n    // Number of mints to execute\n    uint256 nBurn = _ids.length;\n\n     // Executing all minting\n    for (uint256 i = 0; i < nBurn; i++) {\n      // Update storage balance\n      balances[_from][_ids[i]] = balances[_from][_ids[i]].sub(_amounts[i]);\n    }\n\n    // Emit batch mint event\n    emit TransferBatch(msg.sender, _from, address(0x0), _ids, _amounts);\n  }\n\n}\n\n",
  "sourcePath": "multi-token-standard/contracts/tokens/ERC1155/ERC1155MintBurn.sol",
  "compiler": {
    "name": "solc",
    "version": "0.5.12+commit.7709ece9.Emscripten.clang"
  },
  "schemaVersion": "3.3.4",
  "updatedAt": "2021-02-14T15:27:07.310Z",
  "devdoc": {
    "details": "Multi-Fungible Tokens with minting and burning methods. These methods assume     a parent contract to be executed as they are `internal` functions",
    "methods": {
      "balanceOf(address,uint256)": {
        "params": {
          "_id": "ID of the Token",
          "_owner": "The address of the token holder"
        },
        "return": "The _owner's balance of the Token type requested"
      },
      "balanceOfBatch(address[],uint256[])": {
        "params": {
          "_ids": "ID of the Tokens",
          "_owners": "The addresses of the token holders"
        },
        "return": "The _owner's balance of the Token types requested (i.e. balance for each (owner, id) pair)"
      },
      "isApprovedForAll(address,address)": {
        "params": {
          "_operator": "Address of authorized operator",
          "_owner": "The owner of the Tokens"
        },
        "return": "True if the operator is approved, false if not"
      },
      "safeBatchTransferFrom(address,address,uint256[],uint256[],bytes)": {
        "params": {
          "_amounts": "Transfer amounts per token type",
          "_data": "Additional data with no specified format, sent in call to `_to`",
          "_from": "Source addresses",
          "_ids": "IDs of each token type",
          "_to": "Target addresses"
        }
      },
      "safeTransferFrom(address,address,uint256,uint256,bytes)": {
        "params": {
          "_amount": "Transfered amount",
          "_data": "Additional data with no specified format, sent in call to `_to`",
          "_from": "Source address",
          "_id": "ID of the token type",
          "_to": "Target address"
        }
      },
      "setApprovalForAll(address,bool)": {
        "params": {
          "_approved": "True if the operator is approved, false to revoke approval",
          "_operator": "Address to add to the set of authorized operators"
        }
      },
      "supportsInterface(bytes4)": {
        "params": {
          "_interfaceID": "The interface identifier, as specified in ERC-165"
        },
        "return": "`true` if the contract implements `_interfaceID` and"
      }
    }
  },
  "userdoc": {
    "methods": {
      "balanceOf(address,uint256)": {
        "notice": "Get the balance of an account's Tokens"
      },
      "balanceOfBatch(address[],uint256[])": {
        "notice": "Get the balance of multiple account/token pairs"
      },
      "isApprovedForAll(address,address)": {
        "notice": "Queries the approval status of an operator for a given owner"
      },
      "safeBatchTransferFrom(address,address,uint256[],uint256[],bytes)": {
        "notice": "Send multiple types of Tokens from the _from address to the _to address (with safety call)"
      },
      "safeTransferFrom(address,address,uint256,uint256,bytes)": {
        "notice": "Transfers amount amount of an _id from the _from address to the _to address specified"
      },
      "setApprovalForAll(address,bool)": {
        "notice": "Enable or disable approval for a third party (\"operator\") to manage all of caller's tokens"
      },
      "supportsInterface(bytes4)": {
        "notice": "Query if a contract implements an interface"
      }
    }
  }
}