{
  "contractName": "ERC1155Tradable",
  "abi": [
    {
      "inputs": [
        {
          "internalType": "string",
          "name": "_name",
          "type": "string"
        },
        {
          "internalType": "string",
          "name": "_symbol",
          "type": "string"
        },
        {
          "internalType": "string",
          "name": "_newBaseMetadataURI",
          "type": "string"
        },
        {
          "internalType": "address",
          "name": "_initialOwner",
          "type": "address"
        },
        {
          "internalType": "uint256",
          "name": "_initialSupply",
          "type": "uint256"
        }
      ],
      "payable": false,
      "stateMutability": "nonpayable",
      "type": "constructor"
    },
    {
      "anonymous": false,
      "inputs": [
        {
          "indexed": true,
          "internalType": "address",
          "name": "_owner",
          "type": "address"
        },
        {
          "indexed": true,
          "internalType": "address",
          "name": "_operator",
          "type": "address"
        },
        {
          "indexed": false,
          "internalType": "bool",
          "name": "_approved",
          "type": "bool"
        }
      ],
      "name": "ApprovalForAll",
      "type": "event"
    },
    {
      "anonymous": false,
      "inputs": [
        {
          "indexed": true,
          "internalType": "address",
          "name": "previousOwner",
          "type": "address"
        },
        {
          "indexed": true,
          "internalType": "address",
          "name": "newOwner",
          "type": "address"
        }
      ],
      "name": "OwnershipTransferred",
      "type": "event"
    },
    {
      "anonymous": false,
      "inputs": [
        {
          "indexed": true,
          "internalType": "address",
          "name": "_operator",
          "type": "address"
        },
        {
          "indexed": true,
          "internalType": "address",
          "name": "_from",
          "type": "address"
        },
        {
          "indexed": true,
          "internalType": "address",
          "name": "_to",
          "type": "address"
        },
        {
          "indexed": false,
          "internalType": "uint256[]",
          "name": "_ids",
          "type": "uint256[]"
        },
        {
          "indexed": false,
          "internalType": "uint256[]",
          "name": "_amounts",
          "type": "uint256[]"
        }
      ],
      "name": "TransferBatch",
      "type": "event"
    },
    {
      "anonymous": false,
      "inputs": [
        {
          "indexed": true,
          "internalType": "address",
          "name": "_operator",
          "type": "address"
        },
        {
          "indexed": true,
          "internalType": "address",
          "name": "_from",
          "type": "address"
        },
        {
          "indexed": true,
          "internalType": "address",
          "name": "_to",
          "type": "address"
        },
        {
          "indexed": false,
          "internalType": "uint256",
          "name": "_id",
          "type": "uint256"
        },
        {
          "indexed": false,
          "internalType": "uint256",
          "name": "_amount",
          "type": "uint256"
        }
      ],
      "name": "TransferSingle",
      "type": "event"
    },
    {
      "anonymous": false,
      "inputs": [
        {
          "indexed": false,
          "internalType": "string",
          "name": "_uri",
          "type": "string"
        },
        {
          "indexed": true,
          "internalType": "uint256",
          "name": "_id",
          "type": "uint256"
        }
      ],
      "name": "URI",
      "type": "event"
    },
    {
      "constant": true,
      "inputs": [
        {
          "internalType": "address",
          "name": "_owner",
          "type": "address"
        },
        {
          "internalType": "uint256",
          "name": "_id",
          "type": "uint256"
        }
      ],
      "name": "balanceOf",
      "outputs": [
        {
          "internalType": "uint256",
          "name": "",
          "type": "uint256"
        }
      ],
      "payable": false,
      "stateMutability": "view",
      "type": "function"
    },
    {
      "constant": true,
      "inputs": [
        {
          "internalType": "address[]",
          "name": "_owners",
          "type": "address[]"
        },
        {
          "internalType": "uint256[]",
          "name": "_ids",
          "type": "uint256[]"
        }
      ],
      "name": "balanceOfBatch",
      "outputs": [
        {
          "internalType": "uint256[]",
          "name": "",
          "type": "uint256[]"
        }
      ],
      "payable": false,
      "stateMutability": "view",
      "type": "function"
    },
    {
      "constant": true,
      "inputs": [
        {
          "internalType": "uint256",
          "name": "",
          "type": "uint256"
        }
      ],
      "name": "creators",
      "outputs": [
        {
          "internalType": "address",
          "name": "",
          "type": "address"
        }
      ],
      "payable": false,
      "stateMutability": "view",
      "type": "function"
    },
    {
      "constant": true,
      "inputs": [],
      "name": "isOwner",
      "outputs": [
        {
          "internalType": "bool",
          "name": "",
          "type": "bool"
        }
      ],
      "payable": false,
      "stateMutability": "view",
      "type": "function"
    },
    {
      "constant": true,
      "inputs": [],
      "name": "name",
      "outputs": [
        {
          "internalType": "string",
          "name": "",
          "type": "string"
        }
      ],
      "payable": false,
      "stateMutability": "view",
      "type": "function"
    },
    {
      "constant": true,
      "inputs": [],
      "name": "owner",
      "outputs": [
        {
          "internalType": "address",
          "name": "",
          "type": "address"
        }
      ],
      "payable": false,
      "stateMutability": "view",
      "type": "function"
    },
    {
      "constant": false,
      "inputs": [],
      "name": "renounceOwnership",
      "outputs": [],
      "payable": false,
      "stateMutability": "nonpayable",
      "type": "function"
    },
    {
      "constant": false,
      "inputs": [
        {
          "internalType": "address",
          "name": "_from",
          "type": "address"
        },
        {
          "internalType": "address",
          "name": "_to",
          "type": "address"
        },
        {
          "internalType": "uint256[]",
          "name": "_ids",
          "type": "uint256[]"
        },
        {
          "internalType": "uint256[]",
          "name": "_amounts",
          "type": "uint256[]"
        },
        {
          "internalType": "bytes",
          "name": "_data",
          "type": "bytes"
        }
      ],
      "name": "safeBatchTransferFrom",
      "outputs": [],
      "payable": false,
      "stateMutability": "nonpayable",
      "type": "function"
    },
    {
      "constant": false,
      "inputs": [
        {
          "internalType": "address",
          "name": "_from",
          "type": "address"
        },
        {
          "internalType": "address",
          "name": "_to",
          "type": "address"
        },
        {
          "internalType": "uint256",
          "name": "_id",
          "type": "uint256"
        },
        {
          "internalType": "uint256",
          "name": "_amount",
          "type": "uint256"
        },
        {
          "internalType": "bytes",
          "name": "_data",
          "type": "bytes"
        }
      ],
      "name": "safeTransferFrom",
      "outputs": [],
      "payable": false,
      "stateMutability": "nonpayable",
      "type": "function"
    },
    {
      "constant": false,
      "inputs": [
        {
          "internalType": "address",
          "name": "_operator",
          "type": "address"
        },
        {
          "internalType": "bool",
          "name": "_approved",
          "type": "bool"
        }
      ],
      "name": "setApprovalForAll",
      "outputs": [],
      "payable": false,
      "stateMutability": "nonpayable",
      "type": "function"
    },
    {
      "constant": true,
      "inputs": [
        {
          "internalType": "bytes4",
          "name": "_interfaceID",
          "type": "bytes4"
        }
      ],
      "name": "supportsInterface",
      "outputs": [
        {
          "internalType": "bool",
          "name": "",
          "type": "bool"
        }
      ],
      "payable": false,
      "stateMutability": "view",
      "type": "function"
    },
    {
      "constant": true,
      "inputs": [],
      "name": "symbol",
      "outputs": [
        {
          "internalType": "string",
          "name": "",
          "type": "string"
        }
      ],
      "payable": false,
      "stateMutability": "view",
      "type": "function"
    },
    {
      "constant": true,
      "inputs": [
        {
          "internalType": "uint256",
          "name": "",
          "type": "uint256"
        }
      ],
      "name": "tokenSupply",
      "outputs": [
        {
          "internalType": "uint256",
          "name": "",
          "type": "uint256"
        }
      ],
      "payable": false,
      "stateMutability": "view",
      "type": "function"
    },
    {
      "constant": false,
      "inputs": [
        {
          "internalType": "address",
          "name": "newOwner",
          "type": "address"
        }
      ],
      "name": "transferOwnership",
      "outputs": [],
      "payable": false,
      "stateMutability": "nonpayable",
      "type": "function"
    },
    {
      "constant": false,
      "inputs": [
        {
          "internalType": "address",
          "name": "_proxyRegistryAddress",
          "type": "address"
        }
      ],
      "name": "setProxyRegistryAddress",
      "outputs": [],
      "payable": false,
      "stateMutability": "nonpayable",
      "type": "function"
    },
    {
      "constant": true,
      "inputs": [],
      "name": "getProxyRegistryAddress",
      "outputs": [
        {
          "internalType": "address",
          "name": "",
          "type": "address"
        }
      ],
      "payable": false,
      "stateMutability": "view",
      "type": "function"
    },
    {
      "constant": true,
      "inputs": [
        {
          "internalType": "uint256",
          "name": "_id",
          "type": "uint256"
        }
      ],
      "name": "uri",
      "outputs": [
        {
          "internalType": "string",
          "name": "",
          "type": "string"
        }
      ],
      "payable": false,
      "stateMutability": "view",
      "type": "function"
    },
    {
      "constant": true,
      "inputs": [
        {
          "internalType": "uint256",
          "name": "_id",
          "type": "uint256"
        }
      ],
      "name": "totalSupply",
      "outputs": [
        {
          "internalType": "uint256",
          "name": "",
          "type": "uint256"
        }
      ],
      "payable": false,
      "stateMutability": "view",
      "type": "function"
    },
    {
      "constant": false,
      "inputs": [
        {
          "internalType": "string",
          "name": "_newBaseMetadataURI",
          "type": "string"
        }
      ],
      "name": "setBaseMetadataURI",
      "outputs": [],
      "payable": false,
      "stateMutability": "nonpayable",
      "type": "function"
    },
    {
      "constant": false,
      "inputs": [
        {
          "internalType": "address",
          "name": "_initialOwner",
          "type": "address"
        },
        {
          "internalType": "uint256",
          "name": "_initialSupply",
          "type": "uint256"
        },
        {
          "internalType": "string",
          "name": "_uri",
          "type": "string"
        },
        {
          "internalType": "bytes",
          "name": "_data",
          "type": "bytes"
        }
      ],
      "name": "create",
      "outputs": [
        {
          "internalType": "uint256",
          "name": "",
          "type": "uint256"
        }
      ],
      "payable": false,
      "stateMutability": "nonpayable",
      "type": "function"
    },
    {
      "constant": false,
      "inputs": [
        {
          "internalType": "address",
          "name": "_to",
          "type": "address"
        },
        {
          "internalType": "uint256",
          "name": "_id",
          "type": "uint256"
        },
        {
          "internalType": "uint256",
          "name": "_quantity",
          "type": "uint256"
        },
        {
          "internalType": "bytes",
          "name": "_data",
          "type": "bytes"
        }
      ],
      "name": "mint",
      "outputs": [],
      "payable": false,
      "stateMutability": "nonpayable",
      "type": "function"
    },
    {
      "constant": false,
      "inputs": [
        {
          "internalType": "address",
          "name": "_to",
          "type": "address"
        },
        {
          "internalType": "uint256[]",
          "name": "_ids",
          "type": "uint256[]"
        },
        {
          "internalType": "uint256[]",
          "name": "_quantities",
          "type": "uint256[]"
        },
        {
          "internalType": "bytes",
          "name": "_data",
          "type": "bytes"
        }
      ],
      "name": "batchMint",
      "outputs": [],
      "payable": false,
      "stateMutability": "nonpayable",
      "type": "function"
    },
    {
      "constant": false,
      "inputs": [
        {
          "internalType": "address",
          "name": "_to",
          "type": "address"
        },
        {
          "internalType": "uint256[]",
          "name": "_ids",
          "type": "uint256[]"
        }
      ],
      "name": "setCreator",
      "outputs": [],
      "payable": false,
      "stateMutability": "nonpayable",
      "type": "function"
    },
    {
      "constant": true,
      "inputs": [
        {
          "internalType": "address",
          "name": "_owner",
          "type": "address"
        },
        {
          "internalType": "address",
          "name": "_operator",
          "type": "address"
        }
      ],
      "name": "isApprovedForAll",
      "outputs": [
        {
          "internalType": "bool",
          "name": "isOperator",
          "type": "bool"
        }
      ],
      "payable": false,
      "stateMutability": "view",
      "type": "function"
    }
  ],
  "bytecode": "0x608060405260006005553480156200001657600080fd5b506040516200356138038062003561833981810160405260a08110156200003c57600080fd5b81019080805160405193929190846401000000008211156200005d57600080fd5b9083019060208201858111156200007357600080fd5b82516401000000008111828201881017156200008e57600080fd5b82525081516020918201929091019080838360005b83811015620000bd578181015183820152602001620000a3565b50505050905090810190601f168015620000eb5780820380516001836020036101000a031916815260200191505b50604052602001805160405193929190846401000000008211156200010f57600080fd5b9083019060208201858111156200012557600080fd5b82516401000000008111828201881017156200014057600080fd5b82525081516020918201929091019080838360005b838110156200016f57818101518382015260200162000155565b50505050905090810190601f1680156200019d5780820380516001836020036101000a031916815260200191505b5060405260200180516040519392919084640100000000821115620001c157600080fd5b908301906020820185811115620001d757600080fd5b8251640100000000811182820188101715620001f257600080fd5b82525081516020918201929091019080838360005b838110156200022157818101518382015260200162000207565b50505050905090810190601f1680156200024f5780820380516001836020036101000a031916815260200191505b506040908152602082015191015190925090506000620002776001600160e01b036200045616565b600380546001600160a01b0319166001600160a01b038316908117909155604051919250906000907f8be0079c531659141344cd1fd0a4f28419497f9722a3daafe3b4186f6b6457e0908290a3508451620002da906008906020880190620007ff565b508351620002f0906009906020870190620007ff565b5062000305836001600160e01b036200045b16565b60006200031a6001600160e01b036200047416565b90506200032f6001600160e01b036200049816565b600081815260066020526040902080546001600160a01b03191633179055835115620003f357807f6bb7ff708619ba0610cba295a58592e0451dee2622938c8755667688daf3529b856040518080602001828103825283818151815260200191508051906020019080838360005b83811015620003b75781810151838201526020016200039d565b50505050905090810190601f168015620003e55780820380516001836020036101000a031916815260200191505b509250505060405180910390a25b6200043c8382846040518060400160405280600481526020017f3078303000000000000000000000000000000000000000000000000000000000815250620004a360201b60201c565b60009081526007602052604090205550620008a192505050565b335b90565b805162000470906002906020840190620007ff565b5050565b60006200049360016005546200055a60201b62001ff21790919060201c565b905090565b600580546001019055565b6001600160a01b038416600090815260208181526040808320868452825290912054620004db91849062001ff26200055a821b17901c565b6001600160a01b038516600081815260208181526040808320888452825280832094909455835187815290810186905283519293919233927fc3d58168c5ae7397731d063d5bbf3d657854427343f4c083240f7aacaa2d0f62928290030190a4620005546000858585856001600160e01b03620005d616565b50505050565b600082820183811015620005cf57604080517f08c379a000000000000000000000000000000000000000000000000000000000815260206004820152601660248201527f536166654d617468236164643a204f564552464c4f5700000000000000000000604482015290519081900360640190fd5b9392505050565b620005f5846001600160a01b0316620007c260201b620028dd1760201c565b15620007bb576000846001600160a01b031663f23a6e6133888787876040518663ffffffff1660e01b815260040180866001600160a01b03166001600160a01b03168152602001856001600160a01b03166001600160a01b0316815260200184815260200183815260200180602001828103825283818151815260200191508051906020019080838360005b838110156200069b57818101518382015260200162000681565b50505050905090810190601f168015620006c95780820380516001836020036101000a031916815260200191505b509650505050505050602060405180830381600087803b158015620006ed57600080fd5b505af115801562000702573d6000803e3d6000fd5b505050506040513d60208110156200071957600080fd5b505190507fffffffff0000000000000000000000000000000000000000000000000000000081167ff23a6e610000000000000000000000000000000000000000000000000000000014620007b9576040517f08c379a000000000000000000000000000000000000000000000000000000000815260040180806020018281038252603a81526020018062003527603a913960400191505060405180910390fd5b505b5050505050565b6000813f7fc5d2460186f7233c927e7db2dcc703c0e500b653ca82273b7bfad8045d85a4708115801590620007f75750808214155b949350505050565b828054600181600116156101000203166002900490600052602060002090601f016020900481019282601f106200084257805160ff191683800117855562000872565b8280016001018555821562000872579182015b828111156200087257825182559160200191906001019062000855565b506200088092915062000884565b5090565b6200045891905b808211156200088057600081556001016200088b565b612c7680620008b16000396000f3fe608060405234801561001057600080fd5b50600436106101975760003560e01c80638f32d59b116100e3578063d26ea6c01161008c578063e985e9c511610066578063e985e9c514610ba6578063f242432a14610bd4578063f2fde38b14610c9f57610197565b8063d26ea6c0146109f6578063d2a6b51a14610a1c578063e38e3b2414610acf57610197565b8063b48ab8b6116100bd578063b48ab8b6146107fe578063bd85b039146109bc578063cd53d08e146109d957610197565b80638f32d59b146107c057806395d89b41146107c8578063a22cb465146107d057610197565b80632eb2c2d611610145578063731133e91161011f578063731133e9146106505780637e518ec8146107125780638da5cb5b146107b857610197565b80632eb2c2d6146103085780634e1273f4146104d1578063715018a61461064857610197565b80630e89341c116101765780630e89341c146102aa5780631fe5b457146102c75780632693ebf2146102eb57610197565b8062fdd58e1461019c57806301ffc9a7146101da57806306fdde031461022d575b600080fd5b6101c8600480360360408110156101b257600080fd5b506001600160a01b038135169060200135610cc5565b60408051918252519081900360200190f35b610219600480360360208110156101f057600080fd5b50357fffffffff0000000000000000000000000000000000000000000000000000000016610cee565b604080519115158252519081900360200190f35b610235610d97565b6040805160208082528351818301528351919283929083019185019080838360005b8381101561026f578181015183820152602001610257565b50505050905090810190601f16801561029c5780820380516001836020036101000a031916815260200191505b509250505060405180910390f35b610235600480360360208110156102c057600080fd5b5035610e25565b6102cf610f08565b604080516001600160a01b039092168252519081900360200190f35b6101c86004803603602081101561030157600080fd5b5035610f18565b6104cf600480360360a081101561031e57600080fd5b6001600160a01b03823581169260208101359091169181019060608101604082013564010000000081111561035257600080fd5b82018360208201111561036457600080fd5b8035906020019184602083028401116401000000008311171561038657600080fd5b91908080602002602001604051908101604052809392919081815260200183836020028082843760009201919091525092959493602081019350359150506401000000008111156103d657600080fd5b8201836020820111156103e857600080fd5b8035906020019184602083028401116401000000008311171561040a57600080fd5b919080806020026020016040519081016040528093929190818152602001838360200280828437600092019190915250929594936020810193503591505064010000000081111561045a57600080fd5b82018360208201111561046c57600080fd5b8035906020019184600183028401116401000000008311171561048e57600080fd5b91908080601f016020809104026020016040519081016040528093929190818152602001838380828437600092019190915250929550610f2a945050505050565b005b6105f8600480360360408110156104e757600080fd5b81019060208101813564010000000081111561050257600080fd5b82018360208201111561051457600080fd5b8035906020019184602083028401116401000000008311171561053657600080fd5b919080806020026020016040519081016040528093929190818152602001838360200280828437600092019190915250929594936020810193503591505064010000000081111561058657600080fd5b82018360208201111561059857600080fd5b803590602001918460208302840111640100000000831117156105ba57600080fd5b919080806020026020016040519081016040528093929190818152602001838360200280828437600092019190915250929550610fe6945050505050565b60408051602080825283518183015283519192839290830191858101910280838360005b8381101561063457818101518382015260200161061c565b505050509050019250505060405180910390f35b6104cf6110e7565b6104cf6004803603608081101561066657600080fd5b6001600160a01b03823516916020810135916040820135919081019060808101606082013564010000000081111561069d57600080fd5b8201836020820111156106af57600080fd5b803590602001918460018302840111640100000000831117156106d157600080fd5b91908080601f016020809104026020016040519081016040528093929190818152602001838380828437600092019190915250929550611197945050505050565b6104cf6004803603602081101561072857600080fd5b81019060208101813564010000000081111561074357600080fd5b82018360208201111561075557600080fd5b8035906020019184600183028401116401000000008311171561077757600080fd5b91908080601f016020809104026020016040519081016040528093929190818152602001838380828437600092019190915250929550611232945050505050565b6102cf611297565b6102196112a6565b6102356112cc565b6104cf600480360360408110156107e657600080fd5b506001600160a01b0381351690602001351515611327565b6104cf6004803603608081101561081457600080fd5b6001600160a01b03823516919081019060408101602082013564010000000081111561083f57600080fd5b82018360208201111561085157600080fd5b8035906020019184602083028401116401000000008311171561087357600080fd5b91908080602002602001604051908101604052809392919081815260200183836020028082843760009201919091525092959493602081019350359150506401000000008111156108c357600080fd5b8201836020820111156108d557600080fd5b803590602001918460208302840111640100000000831117156108f757600080fd5b919080806020026020016040519081016040528093929190818152602001838360200280828437600092019190915250929594936020810193503591505064010000000081111561094757600080fd5b82018360208201111561095957600080fd5b8035906020019184600183028401116401000000008311171561097b57600080fd5b91908080601f0160208091040260200160405190810160405280939291908181526020018383808284376000920191909152509295506113b3945050505050565b6101c8600480360360208110156109d257600080fd5b503561149f565b6102cf600480360360208110156109ef57600080fd5b50356114b1565b6104cf60048036036020811015610a0c57600080fd5b50356001600160a01b03166114cc565b6104cf60048036036040811015610a3257600080fd5b6001600160a01b038235169190810190604081016020820135640100000000811115610a5d57600080fd5b820183602082011115610a6f57600080fd5b80359060200191846020830284011164010000000083111715610a9157600080fd5b919080806020026020016040519081016040528093929190818152602001838360200280828437600092019190915250929550611554945050505050565b6101c860048036036080811015610ae557600080fd5b6001600160a01b0382351691602081013591810190606081016040820135640100000000811115610b1557600080fd5b820183602082011115610b2757600080fd5b80359060200191846001830284011164010000000083111715610b4957600080fd5b919390929091602081019035640100000000811115610b6757600080fd5b820183602082011115610b7957600080fd5b80359060200191846001830284011164010000000083111715610b9b57600080fd5b5090925090506115d5565b61021960048036036040811015610bbc57600080fd5b506001600160a01b0381358116916020013516611754565b6104cf600480360360a0811015610bea57600080fd5b6001600160a01b03823581169260208101359091169160408201359160608101359181019060a081016080820135640100000000811115610c2a57600080fd5b820183602082011115610c3c57600080fd5b80359060200191846001830284011164010000000083111715610c5e57600080fd5b91908080601f01602080910402602001604051908101604052809392919081815260200183838082843760009201919091525092955061181c945050505050565b6104cf60048036036020811015610cb557600080fd5b50356001600160a01b03166118d1565b6001600160a01b0382166000908152602081815260408083208484529091529020545b92915050565b60007fffffffff0000000000000000000000000000000000000000000000000000000082167f01ffc9a7000000000000000000000000000000000000000000000000000000001480610d8157507fffffffff0000000000000000000000000000000000000000000000000000000082167fd9b67a2600000000000000000000000000000000000000000000000000000000145b15610d8e57506001610d92565b5060005b919050565b6008805460408051602060026001851615610100026000190190941693909304601f81018490048402820184019092528181529291830182828015610e1d5780601f10610df257610100808354040283529160200191610e1d565b820191906000526020600020905b815481529060010190602001808311610e0057829003601f168201915b505050505081565b6060610e3082611933565b610e6b5760405162461bcd60e51b8152600401808060200182810382526025815260200180612abc6025913960400191505060405180910390fd5b60028054604080516020601f60001961010060018716150201909416859004938401819004810282018101909252828152610ce89390929091830182828015610ef55780601f10610eca57610100808354040283529160200191610ef5565b820191906000526020600020905b815481529060010190602001808311610ed857829003601f168201915b5050505050610f0384611950565b611a2d565b6004546001600160a01b03165b90565b60076020526000908152604090205481565b336001600160a01b0386161480610f465750610f468533611754565b610f815760405162461bcd60e51b815260040180806020018281038252602f815260200180612b0d602f913960400191505060405180910390fd5b6001600160a01b038416610fc65760405162461bcd60e51b8152600401808060200182810382526030815260200180612a8c6030913960400191505060405180910390fd5b610fd285858585611a70565b610fdf8585858585611d1b565b5050505050565b606081518351146110285760405162461bcd60e51b815260040180806020018281038252602c815260200180612ae1602c913960400191505060405180910390fd5b60608351604051908082528060200260200182016040528015611055578160200160208202803883390190505b50905060005b84518110156110df5760008086838151811061107357fe5b60200260200101516001600160a01b03166001600160a01b0316815260200190815260200160002060008583815181106110a957fe5b60200260200101518152602001908152602001600020548282815181106110cc57fe5b602090810291909101015260010161105b565b509392505050565b6110ef6112a6565b611140576040805162461bcd60e51b815260206004820181905260248201527f4f776e61626c653a2063616c6c6572206973206e6f7420746865206f776e6572604482015290519081900360640190fd5b6003546040516000916001600160a01b0316907f8be0079c531659141344cd1fd0a4f28419497f9722a3daafe3b4186f6b6457e0908390a36003805473ffffffffffffffffffffffffffffffffffffffff19169055565b60008381526006602052604090205483906001600160a01b031633146111ee5760405162461bcd60e51b8152600401808060200182810382526031815260200180612c116031913960400191505060405180910390fd5b6111fa85858585611f52565b600084815260076020526040902054611219908463ffffffff611ff216565b6000948552600760205260409094209390935550505050565b61123a6112a6565b61128b576040805162461bcd60e51b815260206004820181905260248201527f4f776e61626c653a2063616c6c6572206973206e6f7420746865206f776e6572604482015290519081900360640190fd5b6112948161204c565b50565b6003546001600160a01b031690565b6003546000906001600160a01b03166112bd612063565b6001600160a01b031614905090565b6009805460408051602060026001851615610100026000190190941693909304601f81018490048402820184019092528181529291830182828015610e1d5780601f10610df257610100808354040283529160200191610e1d565b3360008181526001602090815260408083206001600160a01b0387168085529083529281902080547fffffffffffffffffffffffffffffffffffffffffffffffffffffffffffffff0016861515908117909155815190815290519293927f17307eab39ab6107e8899845ad3d59bd9653f200f220920489ca2b5937696c31929181900390910190a35050565b60005b835181101561148c5760008482815181106113cd57fe5b602090810291909101810151600081815260069092526040909120549091506001600160a01b031633146114325760405162461bcd60e51b815260040180806020018281038252602f8152602001806129d8602f913960400191505060405180910390fd5b600084838151811061144057fe5b60200260200101519050611470816007600085815260200190815260200160002054611ff290919063ffffffff16565b60009283526007602052604090922091909155506001016113b6565b5061149984848484612067565b50505050565b60009081526007602052604090205490565b6006602052600090815260409020546001600160a01b031681565b6114d46112a6565b611525576040805162461bcd60e51b815260206004820181905260248201527f4f776e61626c653a2063616c6c6572206973206e6f7420746865206f776e6572604482015290519081900360640190fd5b6004805473ffffffffffffffffffffffffffffffffffffffff19166001600160a01b0392909216919091179055565b6001600160a01b0382166115995760405162461bcd60e51b815260040180806020018281038252602c815260200180612be5602c913960400191505060405180910390fd5b60005b81518110156115d05760008282815181106115b357fe5b602002602001015190506115c7848261223b565b5060010161159c565b505050565b60006115df6112a6565b611630576040805162461bcd60e51b815260206004820181905260248201527f4f776e61626c653a2063616c6c6572206973206e6f7420746865206f776e6572604482015290519081900360640190fd5b600061163a6122ce565b90506116446122ea565b6000818152600660205260409020805473ffffffffffffffffffffffffffffffffffffffff19163317905584156116f557807f6bb7ff708619ba0610cba295a58592e0451dee2622938c8755667688daf3529b878760405180806020018281038252848482818152602001925080828437600083820152604051601f9091017fffffffffffffffffffffffffffffffffffffffffffffffffffffffffffffffe0169092018290039550909350505050a25b61173788828987878080601f016020809104026020016040519081016040528093929190818152602001838380828437600092019190915250611f5292505050565b600081815260076020526040902087905590509695505050505050565b60048054604080517fc45527910000000000000000000000000000000000000000000000000000000081526001600160a01b0386811694820194909452905160009392831692851691839163c455279191602480820192602092909190829003018186803b1580156117c557600080fd5b505afa1580156117d9573d6000803e3d6000fd5b505050506040513d60208110156117ef57600080fd5b50516001600160a01b0316141561180a576001915050610ce8565b61181484846122f5565b949350505050565b336001600160a01b038616148061183857506118388533611754565b6118735760405162461bcd60e51b815260040180806020018281038252602a815260200180612a2d602a913960400191505060405180910390fd5b6001600160a01b0384166118b85760405162461bcd60e51b815260040180806020018281038252602b8152602001806129ad602b913960400191505060405180910390fd5b6118c485858585612323565b610fdf858585858561240b565b6118d96112a6565b61192a576040805162461bcd60e51b815260206004820181905260248201527f4f776e61626c653a2063616c6c6572206973206e6f7420746865206f776e6572604482015290519081900360640190fd5b611294816125be565b6000908152600660205260409020546001600160a01b0316151590565b606081611991575060408051808201909152600181527f30000000000000000000000000000000000000000000000000000000000000006020820152610d92565b8160005b81156119a957600101600a82049150611995565b6060816040519080825280601f01601f1916602001820160405280156119d6576020820181803883390190505b50905060001982015b8515611a2457600a860660300160f81b82828060019003935081518110611a0257fe5b60200101906001600160f81b031916908160001a905350600a860495506119df565b50949350505050565b6060611a69838360405180602001604052806000815250604051806020016040528060008152506040518060200160405280600081525061266c565b9392505050565b8051825114611ab05760405162461bcd60e51b8152600401808060200182810382526035815260200180612a576035913960400191505060405180910390fd5b815160005b81811015611c3a57611b2b838281518110611acc57fe5b6020026020010151600080896001600160a01b03166001600160a01b031681526020019081526020016000206000878581518110611b0657fe5b602002602001015181526020019081526020016000205461288090919063ffffffff16565b600080886001600160a01b03166001600160a01b031681526020019081526020016000206000868481518110611b5d57fe5b6020026020010151815260200190815260200160002081905550611be5838281518110611b8657fe5b6020026020010151600080886001600160a01b03166001600160a01b031681526020019081526020016000206000878581518110611bc057fe5b6020026020010151815260200190815260200160002054611ff290919063ffffffff16565b600080876001600160a01b03166001600160a01b031681526020019081526020016000206000868481518110611c1757fe5b602090810291909101810151825281019190915260400160002055600101611ab5565b50836001600160a01b0316856001600160a01b0316336001600160a01b03167f4a39dc06d4c0dbc64b70af90fd698a233a518aa5d07e595d983b8c0526c8f7fb8686604051808060200180602001838103835285818151815260200191508051906020019060200280838360005b83811015611cc0578181015183820152602001611ca8565b50505050905001838103825284818151815260200191508051906020019060200280838360005b83811015611cff578181015183820152602001611ce7565b5050505090500194505050505060405180910390a45050505050565b611d2d846001600160a01b03166128dd565b15610fdf576000846001600160a01b031663bc197c8133888787876040518663ffffffff1660e01b815260040180866001600160a01b03166001600160a01b03168152602001856001600160a01b03166001600160a01b03168152602001806020018060200180602001848103845287818151815260200191508051906020019060200280838360005b83811015611dcf578181015183820152602001611db7565b50505050905001848103835286818151815260200191508051906020019060200280838360005b83811015611e0e578181015183820152602001611df6565b50505050905001848103825285818151815260200191508051906020019080838360005b83811015611e4a578181015183820152602001611e32565b50505050905090810190601f168015611e775780820380516001836020036101000a031916815260200191505b5098505050505050505050602060405180830381600087803b158015611e9c57600080fd5b505af1158015611eb0573d6000803e3d6000fd5b505050506040513d6020811015611ec657600080fd5b505190507fffffffff0000000000000000000000000000000000000000000000000000000081167fbc197c810000000000000000000000000000000000000000000000000000000014611f4a5760405162461bcd60e51b815260040180806020018281038252603f815260200180612b6c603f913960400191505060405180910390fd5b505050505050565b6001600160a01b038416600090815260208181526040808320868452909152902054611f84908363ffffffff611ff216565b6001600160a01b038516600081815260208181526040808320888452825280832094909455835187815290810186905283519293919233927fc3d58168c5ae7397731d063d5bbf3d657854427343f4c083240f7aacaa2d0f62928290030190a461149960008585858561240b565b600082820183811015611a69576040805162461bcd60e51b815260206004820152601660248201527f536166654d617468236164643a204f564552464c4f5700000000000000000000604482015290519081900360640190fd5b805161205f906002906020840190612914565b5050565b3390565b81518351146120a75760405162461bcd60e51b8152600401808060200182810382526030815260200180612b3c6030913960400191505060405180910390fd5b825160005b81811015612152576120fd8482815181106120c357fe5b6020026020010151600080896001600160a01b03166001600160a01b031681526020019081526020016000206000888581518110611bc057fe5b600080886001600160a01b03166001600160a01b03168152602001908152602001600020600087848151811061212f57fe5b6020908102919091018101518252810191909152604001600020556001016120ac565b50846001600160a01b031660006001600160a01b0316336001600160a01b03167f4a39dc06d4c0dbc64b70af90fd698a233a518aa5d07e595d983b8c0526c8f7fb8787604051808060200180602001838103835285818151815260200191508051906020019060200280838360005b838110156121d95781810151838201526020016121c1565b50505050905001838103825284818151815260200191508051906020019060200280838360005b83811015612218578181015183820152602001612200565b5050505090500194505050505060405180910390a4610fdf600086868686611d1b565b60008181526006602052604090205481906001600160a01b031633146122925760405162461bcd60e51b8152600401808060200182810382526031815260200180612c116031913960400191505060405180910390fd5b506000908152600660205260409020805473ffffffffffffffffffffffffffffffffffffffff19166001600160a01b0392909216919091179055565b6005546000906122e590600163ffffffff611ff216565b905090565b600580546001019055565b6001600160a01b03918216600090815260016020908152604080832093909416825291909152205460ff1690565b6001600160a01b038416600090815260208181526040808320858452909152902054612355908263ffffffff61288016565b6001600160a01b038086166000908152602081815260408083208784528252808320949094559186168152808252828120858252909152205461239e908263ffffffff611ff216565b6001600160a01b03808516600081815260208181526040808320888452825291829020949094558051868152938401859052805191939288169233927fc3d58168c5ae7397731d063d5bbf3d657854427343f4c083240f7aacaa2d0f62929181900390910190a450505050565b61241d846001600160a01b03166128dd565b15610fdf576000846001600160a01b031663f23a6e6133888787876040518663ffffffff1660e01b815260040180866001600160a01b03166001600160a01b03168152602001856001600160a01b03166001600160a01b0316815260200184815260200183815260200180602001828103825283818151815260200191508051906020019080838360005b838110156124c05781810151838201526020016124a8565b50505050905090810190601f1680156124ed5780820380516001836020036101000a031916815260200191505b509650505050505050602060405180830381600087803b15801561251057600080fd5b505af1158015612524573d6000803e3d6000fd5b505050506040513d602081101561253a57600080fd5b505190507fffffffff0000000000000000000000000000000000000000000000000000000081167ff23a6e610000000000000000000000000000000000000000000000000000000014611f4a5760405162461bcd60e51b815260040180806020018281038252603a815260200180612bab603a913960400191505060405180910390fd5b6001600160a01b0381166126035760405162461bcd60e51b8152600401808060200182810382526026815260200180612a076026913960400191505060405180910390fd5b6003546040516001600160a01b038084169216907f8be0079c531659141344cd1fd0a4f28419497f9722a3daafe3b4186f6b6457e090600090a36003805473ffffffffffffffffffffffffffffffffffffffff19166001600160a01b0392909216919091179055565b6060808690506060869050606086905060608690506060869050606081518351855187518951010101016040519080825280601f01601f1916602001820160405280156126c0576020820181803883390190505b509050806000805b8851811015612719578881815181106126dd57fe5b602001015160f81c60f81b8383806001019450815181106126fa57fe5b60200101906001600160f81b031916908160001a9053506001016126c8565b5060005b875181101561276e5787818151811061273257fe5b602001015160f81c60f81b83838060010194508151811061274f57fe5b60200101906001600160f81b031916908160001a90535060010161271d565b5060005b86518110156127c35786818151811061278757fe5b602001015160f81c60f81b8383806001019450815181106127a457fe5b60200101906001600160f81b031916908160001a905350600101612772565b5060005b8551811015612818578581815181106127dc57fe5b602001015160f81c60f81b8383806001019450815181106127f957fe5b60200101906001600160f81b031916908160001a9053506001016127c7565b5060005b845181101561286d5784818151811061283157fe5b602001015160f81c60f81b83838060010194508151811061284e57fe5b60200101906001600160f81b031916908160001a90535060010161281c565b50909d9c50505050505050505050505050565b6000828211156128d7576040805162461bcd60e51b815260206004820152601760248201527f536166654d617468237375623a20554e444552464c4f57000000000000000000604482015290519081900360640190fd5b50900390565b6000813f7fc5d2460186f7233c927e7db2dcc703c0e500b653ca82273b7bfad8045d85a47081158015906118145750141592915050565b828054600181600116156101000203166002900490600052602060002090601f016020900481019282601f1061295557805160ff1916838001178555612982565b82800160010185558215612982579182015b82811115612982578251825591602001919060010190612967565b5061298e929150612992565b5090565b610f1591905b8082111561298e576000815560010161299856fe4552433131353523736166655472616e7366657246726f6d3a20494e56414c49445f524543495049454e54455243313135355472616461626c652362617463684d696e743a204f4e4c595f43524541544f525f414c4c4f5745444f776e61626c653a206e6577206f776e657220697320746865207a65726f20616464726573734552433131353523736166655472616e7366657246726f6d3a20494e56414c49445f4f50455241544f5245524331313535235f7361666542617463685472616e7366657246726f6d3a20494e56414c49445f4152524159535f4c454e47544845524331313535237361666542617463685472616e7366657246726f6d3a20494e56414c49445f524543495049454e544552433732315472616461626c65237572693a204e4f4e4558495354454e545f544f4b454e455243313135352362616c616e63654f6642617463683a20494e56414c49445f41525241595f4c454e47544845524331313535237361666542617463685472616e7366657246726f6d3a20494e56414c49445f4f50455241544f52455243313135354d696e744275726e2362617463684d696e743a20494e56414c49445f4152524159535f4c454e47544845524331313535235f63616c6c6f6e45524331313535426174636852656365697665643a20494e56414c49445f4f4e5f524543454956455f4d45535341474545524331313535235f63616c6c6f6e4552433131353552656365697665643a20494e56414c49445f4f4e5f524543454956455f4d455353414745455243313135355472616461626c652373657443726561746f723a20494e56414c49445f414444524553532e455243313135355472616461626c652363726561746f724f6e6c793a204f4e4c595f43524541544f525f414c4c4f574544a265627a7a72315820a70789dbe6c622a31339e6a1606338e6175cbd9ba9802f5d6af05a990c064d6e64736f6c634300050c003245524331313535235f63616c6c6f6e4552433131353552656365697665643a20494e56414c49445f4f4e5f524543454956455f4d455353414745",
  "source": "pragma solidity ^0.5.12;\n\nimport \"openzeppelin-solidity/contracts/ownership/Ownable.sol\";\nimport 'multi-token-standard/contracts/tokens/ERC1155/ERC1155.sol';\nimport 'multi-token-standard/contracts/tokens/ERC1155/ERC1155Metadata.sol';\nimport 'multi-token-standard/contracts/tokens/ERC1155/ERC1155MintBurn.sol';\nimport \"./Strings.sol\";\n\ncontract OwnableDelegateProxy { }\n\ncontract ProxyRegistry {\n  mapping(address => OwnableDelegateProxy) public proxies;\n}\n\n/**\n * @title ERC1155Tradable\n * ERC1155Tradable - ERC1155 contract that whitelists an operator address, has create and mint functionality, and supports useful standards from OpenZeppelin,\n  like _exists(), name(), symbol(), and totalSupply()\n */\ncontract ERC1155Tradable is ERC1155, ERC1155MintBurn, ERC1155Metadata, Ownable {\n  using Strings for string;\n\n  address proxyRegistryAddress;\n  uint256 private _currentTokenID = 0;\n  mapping (uint256 => address) public creators;\n  mapping (uint256 => uint256) public tokenSupply;\n  // Contract name\n  string public name;\n  // Contract symbol\n  string public symbol;\n\n  /**\n   * @dev Require msg.sender to be the creator of the token id\n   */\n  modifier creatorOnly(uint256 _id) {\n    require(creators[_id] == msg.sender, \"ERC1155Tradable#creatorOnly: ONLY_CREATOR_ALLOWED\");\n    _;\n  }\n\n  /**\n   * @dev Require msg.sender to own more than 0 of the token id\n   */\n  modifier ownersOnly(uint256 _id) {\n    require(balances[msg.sender][_id] > 0, \"ERC1155Tradable#ownersOnly: ONLY_OWNERS_ALLOWED\");\n    _;\n  }\n\n  constructor(\n    string memory _name,\n    string memory _symbol,\n    string memory _newBaseMetadataURI,\n    address _initialOwner,\n    uint256 _initialSupply\n    // address _proxyRegistryAddress\n  ) public {\n    name = _name;\n    symbol = _symbol;\n    _setBaseMetadataURI(_newBaseMetadataURI);\n    \n    // Disable Proxy\n    // proxyRegistryAddress = _proxyRegistryAddress;\n    \n    // Create the first token\n    uint256 _id = _getNextTokenID();\n    _incrementTokenTypeId();\n    creators[_id] = msg.sender;\n\n    if (bytes(_newBaseMetadataURI).length > 0) {\n      emit URI(_newBaseMetadataURI, _id);\n    }\n\n    _mint(_initialOwner, _id, _initialSupply, \"0x00\");\n    tokenSupply[_id] = _initialSupply;\n  }\n\n  function setProxyRegistryAddress(\n    address _proxyRegistryAddress\n  ) public onlyOwner {\n    proxyRegistryAddress = _proxyRegistryAddress;\n  }\n\n  function getProxyRegistryAddress(\n  ) public view returns (address) {\n    return proxyRegistryAddress;\n  }\n\n  function uri(\n    uint256 _id\n  ) public view returns (string memory) {\n    require(_exists(_id), \"ERC721Tradable#uri: NONEXISTENT_TOKEN\");\n    return Strings.strConcat(\n      baseMetadataURI,\n      Strings.uint2str(_id)\n    );\n  }\n\n  /**\n    * @dev Returns the total quantity for a token ID\n    * @param _id uint256 ID of the token to query\n    * @return amount of token in existence\n    */\n  function totalSupply(\n    uint256 _id\n  ) public view returns (uint256) {\n    return tokenSupply[_id];\n  }\n\n  /**\n   * @dev Will update the base URL of token's URI\n   * @param _newBaseMetadataURI New base URL of token's URI\n   */\n  function setBaseMetadataURI(\n    string memory _newBaseMetadataURI\n  ) public onlyOwner {\n    _setBaseMetadataURI(_newBaseMetadataURI);\n  }\n\n  /**\n    * @dev Creates a new token type and assigns _initialSupply to an address\n    * NOTE: remove onlyOwner if you want third parties to create new tokens on your contract (which may change your IDs)\n    * @param _initialOwner address of the first owner of the token\n    * @param _initialSupply amount to supply the first owner\n    * @param _uri Optional URI for this token type\n    * @param _data Data to pass if receiver is contract\n    * @return The newly created token ID\n    */\n  function create(\n    address _initialOwner,\n    uint256 _initialSupply,\n    string calldata _uri,\n    bytes calldata _data\n  ) external onlyOwner returns (uint256) {\n\n    uint256 _id = _getNextTokenID();\n    _incrementTokenTypeId();\n    creators[_id] = msg.sender;\n\n    if (bytes(_uri).length > 0) {\n      emit URI(_uri, _id);\n    }\n\n    _mint(_initialOwner, _id, _initialSupply, _data);\n    tokenSupply[_id] = _initialSupply;\n    return _id;\n  }\n\n  /**\n    * @dev Mints some amount of tokens to an address\n    * @param _to          Address of the future owner of the token\n    * @param _id          Token ID to mint\n    * @param _quantity    Amount of tokens to mint\n    * @param _data        Data to pass if receiver is contract\n    */\n  function mint(\n    address _to,\n    uint256 _id,\n    uint256 _quantity,\n    bytes memory _data\n  ) public creatorOnly(_id) {\n    _mint(_to, _id, _quantity, _data);\n    tokenSupply[_id] = tokenSupply[_id].add(_quantity);\n  }\n\n  /**\n    * @dev Mint tokens for each id in _ids\n    * @param _to          The address to mint tokens to\n    * @param _ids         Array of ids to mint\n    * @param _quantities  Array of amounts of tokens to mint per id\n    * @param _data        Data to pass if receiver is contract\n    */\n  function batchMint(\n    address _to,\n    uint256[] memory _ids,\n    uint256[] memory _quantities,\n    bytes memory _data\n  ) public {\n    for (uint256 i = 0; i < _ids.length; i++) {\n      uint256 _id = _ids[i];\n      require(creators[_id] == msg.sender, \"ERC1155Tradable#batchMint: ONLY_CREATOR_ALLOWED\");\n      uint256 quantity = _quantities[i];\n      tokenSupply[_id] = tokenSupply[_id].add(quantity);\n    }\n    _batchMint(_to, _ids, _quantities, _data);\n  }\n\n  /**\n    * @dev Change the creator address for given tokens\n    * @param _to   Address of the new creator\n    * @param _ids  Array of Token IDs to change creator\n    */\n  function setCreator(\n    address _to,\n    uint256[] memory _ids\n  ) public {\n    require(_to != address(0), \"ERC1155Tradable#setCreator: INVALID_ADDRESS.\");\n    for (uint256 i = 0; i < _ids.length; i++) {\n      uint256 id = _ids[i];\n      _setCreator(_to, id);\n    }\n  }\n\n  /**\n   * Override isApprovedForAll to whitelist user's OpenSea proxy accounts to enable gas-free listings.\n   */\n  function isApprovedForAll(\n    address _owner,\n    address _operator\n  ) public view returns (bool isOperator) {\n    // Whitelist OpenSea proxy contract for easy trading.\n    ProxyRegistry proxyRegistry = ProxyRegistry(proxyRegistryAddress);\n    if (address(proxyRegistry.proxies(_owner)) == _operator) {\n      return true;\n    }\n\n    return ERC1155.isApprovedForAll(_owner, _operator);\n  }\n\n  /**\n    * @dev Change the creator address for given token\n    * @param _to   Address of the new creator\n    * @param _id  Token IDs to change creator of\n    */\n  function _setCreator(address _to, uint256 _id) internal creatorOnly(_id)\n  {\n      creators[_id] = _to;\n  }\n\n  /**\n    * @dev Returns whether the specified token exists by checking to see if it has a creator\n    * @param _id uint256 ID of the token to query the existence of\n    * @return bool whether the token exists\n    */\n  function _exists(\n    uint256 _id\n  ) internal view returns (bool) {\n    return creators[_id] != address(0);\n  }\n\n  /**\n    * @dev calculates the next token ID based on value of _currentTokenID\n    * @return uint256 for the next token ID\n    */\n  function _getNextTokenID() private view returns (uint256) {\n    return _currentTokenID.add(1);\n  }\n\n  /**\n    * @dev increments the value of _currentTokenID\n    */\n  function _incrementTokenTypeId() private  {\n    _currentTokenID++;\n  }\n}\n",
  "sourcePath": "/home/trung/Work/reference/morphe/task/dApp/ml-NFT-tool/erc1155/contracts/ERC1155Tradable.sol",
  "compiler": {
    "name": "solc",
    "version": "0.5.12+commit.7709ece9.Emscripten.clang"
  },
  "schemaVersion": "3.3.4",
  "updatedAt": "2021-02-14T15:27:07.292Z",
  "devdoc": {
    "methods": {
      "balanceOf(address,uint256)": {
        "params": {
          "_id": "ID of the Token",
          "_owner": "The address of the token holder"
        },
        "return": "The _owner's balance of the Token type requested"
      },
      "balanceOfBatch(address[],uint256[])": {
        "params": {
          "_ids": "ID of the Tokens",
          "_owners": "The addresses of the token holders"
        },
        "return": "The _owner's balance of the Token types requested (i.e. balance for each (owner, id) pair)"
      },
      "batchMint(address,uint256[],uint256[],bytes)": {
        "details": "Mint tokens for each id in _ids",
        "params": {
          "_data": "Data to pass if receiver is contract",
          "_ids": "Array of ids to mint",
          "_quantities": "Array of amounts of tokens to mint per id",
          "_to": "The address to mint tokens to"
        }
      },
      "create(address,uint256,string,bytes)": {
        "details": "Creates a new token type and assigns _initialSupply to an address NOTE: remove onlyOwner if you want third parties to create new tokens on your contract (which may change your IDs)",
        "params": {
          "_data": "Data to pass if receiver is contract",
          "_initialOwner": "address of the first owner of the token",
          "_initialSupply": "amount to supply the first owner",
          "_uri": "Optional URI for this token type"
        },
        "return": "The newly created token ID"
      },
      "isOwner()": {
        "details": "Returns true if the caller is the current owner."
      },
      "mint(address,uint256,uint256,bytes)": {
        "details": "Mints some amount of tokens to an address",
        "params": {
          "_data": "Data to pass if receiver is contract",
          "_id": "Token ID to mint",
          "_quantity": "Amount of tokens to mint",
          "_to": "Address of the future owner of the token"
        }
      },
      "owner()": {
        "details": "Returns the address of the current owner."
      },
      "renounceOwnership()": {
        "details": "Leaves the contract without owner. It will not be possible to call `onlyOwner` functions anymore. Can only be called by the current owner.     * NOTE: Renouncing ownership will leave the contract without an owner, thereby removing any functionality that is only available to the owner."
      },
      "safeBatchTransferFrom(address,address,uint256[],uint256[],bytes)": {
        "params": {
          "_amounts": "Transfer amounts per token type",
          "_data": "Additional data with no specified format, sent in call to `_to`",
          "_from": "Source addresses",
          "_ids": "IDs of each token type",
          "_to": "Target addresses"
        }
      },
      "safeTransferFrom(address,address,uint256,uint256,bytes)": {
        "params": {
          "_amount": "Transfered amount",
          "_data": "Additional data with no specified format, sent in call to `_to`",
          "_from": "Source address",
          "_id": "ID of the token type",
          "_to": "Target address"
        }
      },
      "setApprovalForAll(address,bool)": {
        "params": {
          "_approved": "True if the operator is approved, false to revoke approval",
          "_operator": "Address to add to the set of authorized operators"
        }
      },
      "setBaseMetadataURI(string)": {
        "details": "Will update the base URL of token's URI",
        "params": {
          "_newBaseMetadataURI": "New base URL of token's URI"
        }
      },
      "setCreator(address,uint256[])": {
        "details": "Change the creator address for given tokens",
        "params": {
          "_ids": "Array of Token IDs to change creator",
          "_to": "Address of the new creator"
        }
      },
      "supportsInterface(bytes4)": {
        "params": {
          "_interfaceID": "The interface identifier, as specified in ERC-165"
        },
        "return": "`true` if the contract implements `_interfaceID` and"
      },
      "totalSupply(uint256)": {
        "details": "Returns the total quantity for a token ID",
        "params": {
          "_id": "uint256 ID of the token to query"
        },
        "return": "amount of token in existence"
      },
      "transferOwnership(address)": {
        "details": "Transfers ownership of the contract to a new account (`newOwner`). Can only be called by the current owner."
      }
    },
    "title": "ERC1155Tradable ERC1155Tradable - ERC1155 contract that whitelists an operator address, has create and mint functionality, and supports useful standards from OpenZeppelin, like _exists(), name(), symbol(), and totalSupply()"
  },
  "userdoc": {
    "methods": {
      "balanceOf(address,uint256)": {
        "notice": "Get the balance of an account's Tokens"
      },
      "balanceOfBatch(address[],uint256[])": {
        "notice": "Get the balance of multiple account/token pairs"
      },
      "isApprovedForAll(address,address)": {
        "notice": "Override isApprovedForAll to whitelist user's OpenSea proxy accounts to enable gas-free listings."
      },
      "safeBatchTransferFrom(address,address,uint256[],uint256[],bytes)": {
        "notice": "Send multiple types of Tokens from the _from address to the _to address (with safety call)"
      },
      "safeTransferFrom(address,address,uint256,uint256,bytes)": {
        "notice": "Transfers amount amount of an _id from the _from address to the _to address specified"
      },
      "setApprovalForAll(address,bool)": {
        "notice": "Enable or disable approval for a third party (\"operator\") to manage all of caller's tokens"
      },
      "supportsInterface(bytes4)": {
        "notice": "Query if a contract implements an interface"
      }
    }
  }
}